:020000020000FC
:040000000C942A0032
:040020000C944600F6
:1000540004E00EBF0FE50DBF0FEF0ABB01E109BFBE
:1000640000E002BF0BE00EBD02E60BBD1AE51ABDAF
:1000740011271093600010936100789401EB07BB83
:1000840003E50DB90C9444001091600010F00C9439
:10009400580010916100103089F0110F38F020E001
:1000A40030E04EEF0E9496000C94650010E020E0D2
:1000B40030E04FEF0E9496000C94650011E010931D
:1000C40061000E94960010916000103059F0110FE9
:1000D40020E030E04EEF0E94960058F0109360004C
:1000E4000C947B0011E0109360000E9496000C9425
:1000F4007E0011E01093610010E021E030E04FEE4B
:100104000E949600109361000C948D0011E01093EE
:1001140061000E94960010E025E030E040E00E947B
:1001240096000E94A30018950E94AF000E94AB00A5
:100134000E94A7000E949F000895042F0E94B3000C
:100144000895C09A0000C0980895032F0E94B30038
:100154000895022F0E94B3000895012F0E94B30056
:1001640008950FB9779BFECF08950C94440011278E
:10017400222733274FEF0E949600089524E035EE9E
:0A0184003A95F1F72A95E1F7089586
:00000001FF
